:020000040800F2
:1000000040090024AD020008454300080F3C0008E9
:1000100041430008B9030008B9550008000000007A
:10002000000000000000000000000000CD470008B4
:10003000F10300080000000049430008614B00087C
:10004000C7020008C7020008C7020008C70200086C
:10005000C7020008C7020008C7020008C70200085C
:10006000C7020008C7020008C7020008C70200084C
:10007000C7020008C7020008C7020008C70200083C
:10008000C7020008C7020008C7020008C70200082C
:10009000C7020008C7020008C7020008C70200081C
:1000A000C7020008C7020008C7020008C70200080C
:1000B000C7020008C7020008C7020008C7020008FC
:1000C000C7020008C7020008C7020008C7020008EC
:1000D000C7020008C7020008C7020008C7020008DC
:1000E000C7020008C702000800000000C70200089D
:1000F000C7020008C7020008C7020008C7020008BC
:10010000C7020008C7020008C7020008C7020008AB
:10011000C7020008C7020008C7020008C70200089B
:10012000C7020008C7020008C7020008C70200088B
:10013000C7020008C7020008C7020008C70200087B
:1001400000000000000000000000000000000000AF
:10015000C7020008C7020008C7020008C70200085B
:10016000C7020008C7020008C7020008C70200084B
:10017000C7020008C7020008C7020008000000000C
:10018000C7020008C7020008C7020008C70200082B
:10019000C7020008C7020008C7020008C70200081B
:1001A000C7020008C7020008C7020008C70200080B
:1001B000C7020008C7020008C7020008C7020008FB
:1001C000C7020008C7020008C7020008C7020008EB
:1001D000C7020008C7020008C7020008C7020008DB
:1001E000C7020008C7020008C7020008C7020008CB
:1001F000C7020008C7020008C7020008C7020008BB
:10020000C7020008C7020008C7020008C7020008AA
:10021000C7020008C7020008C7020008C70200089A
:10022000C7020008C7020008C7020008000000005B
:10023000C7020008C702000800000000C70200084B
:10024000C7020008C7020008C7020008C70200086A
:10025000C7020008C7020008C7020008C70200085A
:10026000C7020008C7020008C7020008C70200084A
:10027000C7020008C7020008C7020008000000000B
:10028000C7020008C7020008C702000800000000FB
:1002900000000000C7020008DFF80CD000F07AF878
:1002A00000480047E95A00084009002406488047F2
:1002B00006480047FEE7FEE7FEE7FEE7FEE7FEE74B
:1002C000FEE7FEE7FEE7FEE7394C0008990200086A
:1002D0002DE9F05F0546002092469B46884606467B
:1002E000814640241BE0284641464746224600F00E
:1002F00041F853465A46C01A914110D31146184648
:10030000224600F028F82D1A67EB01084F462246D6
:100310000120002100F01FF817EB00094E41201EBC
:10032000A4F10104DFDC484631462A464346BDE8D5
:10033000F09FD2B201E000F8012B491EFBD27047BA
:100340000022F6E710B513460A4604461946FFF7A1
:10035000F0FF204610BD202A04DB203A00FA02F10B
:10036000002070479140C2F1200320FA03F31943A3
:1003700090407047202A04DB203A21FA02F0002145
:10038000704721FA02F3D040C2F1200291400843A5
:1003900019467047064C074D06E0E06840F001033F
:1003A00094E8070098471034AC42F6D3FFF778FF83
:1003B000685D0008885D000800BFFEE7F0B50546EF
:1003C0000E460024AF1905E015F8011BA0B205F098
:1003D000DAF80446BD42F7D3A0B2002105F0D3F805
:1003E00004462046002105F0CEF804462046F0BD24
:1003F000704772B600BFFEE72DE9F04105460E4694
:1004000001F07AF80746012E01D1082400E0294CBA
:100410000AE0681C40B101F06FF8C01BA84200D888
:1004200015B90320BDE8F08123482040A04208D13F
:10043000224800692040A04201D101200DE00020A7
:100440000BE01F48006824F00041084024F0004100
:10045000884201D1012000E000200028D9D1012EDE
:1004600011D11648006900F08050B0F1805F1ED1B4
:100470001448806940F080501249886130070F4964
:1004800048610120CEE70E48006800F08050B0F1CE
:10049000805F0CD10B48806940F0104009498861A9
:1004A0004FF080500649091D08600120BAE700207E
:1004B000B8E70000080000800F00EF1F0020005286
:1004C000102100522005002410B501F001037BB17A
:1004D000134BDB6823F4E663114CE36042F0040342
:1004E00043EA002343F08003E46823430C4CE360B9
:1004F00001F00203022B12D10A4B1B6823F4E663BE
:10050000074CC4F80C3142F0040343EA002343F0E3
:100510008003D4F80C412343014CC4F80C3110BDC6
:10052000002000520C21005230B587B0054600F083
:10053000A9FE00F037F8124800F01EFB0446002028
:1005400001900394C4F1080004902020059001203C
:10055000029006A901A800F049FC10B1012007B0E3
:1005600030BD012001900220029006A901A800F0F0
:100570003DFC08B10120F2E700F07EFD0020EEE72F
:100580000000020810B592B000240120089001A8D4
:1005900000F0CAFC0398C4B214B1022012B010BD1E
:1005A0000020FBE74FF48E000149486170470000CE
:1005B000002000522DE9F04104460E461746002562
:1005C00000F060FE00BF13E006EB8502214601202B
:1005D00000F0C2FD48B956F825102068884202D0C4
:1005E0000220BDE8F081203401E00320F9E708355E
:1005F000BD4202D203488442E6D900F03DFD00200E
:10060000EFE70000DFFF0F0870B5A2B0044640F628
:10061000FF75002600F036FE00F084FD01200790F3
:100620001890684600F080FC1294012011904FF45D
:100630002A40149006981790029840F0FF051395F1
:1006400011A800F0A7FC064600F038FD00F058FDA8
:1006500000F012FD304622B070BD000001F0030230
:10066000032A1BD1234AD26822F03002214BDA60E0
:10067000214A126822F03002C3F80C211A46D268CF
:100680000243DA601A46D2F80C210243C3F80C2167
:100690001A46926942F010029A6129E001F00102C3
:1006A00072B1144AD26822F03002124BDA601A4654
:1006B000D2680243DA601A46D26842F08802DA60F1
:1006C00001F00202022A13D10B4A126822F0300212
:1006D000084BC3F80C211A46D2F80C210243C3F888
:1006E0000C211A46D2F80C2142F08802C3F80C21E2
:1006F00070470000002000520C2100520349096A93
:1007000021F00C010143014A1162704700200052A0
:1007100010B500F001033BB1094B5B6C6FF30F03A5
:1007200043EA1143064C636400F00203022B05D137
:10073000034B5B6C9BB21343014C636410BD000020
:100740000020005201F001022AB1094AD26BC3B263
:100750001A43074BDA6301F00202022A06D1054A66
:100760001268C3B21A43024BC3F83C217047000021
:10077000002000523C21005201F001022AB1094A36
:10078000D26BC3B29A43074BDA6301F00202022A2A
:1007900006D1054A1268C3B29A43024BC3F83C2102
:1007A00070470000002000523C2100520248C069FE
:1007B00000F00C007047000000200052034B1A6C40
:1007C00013040360130C1B040B60704700200052DD
:1007D00070B5044600200025012B02D10C4EB06AF2
:1007E000DD06022B03D10B4E30684FF0016500F09F
:1007F00000462660C0F30B0605EB06260E60C0F32C
:100800000B461660166805EB0626166070BD0000E4
:1008100000200052282100520748C06900F47F419F
:10082000B1F52A4F05D0B1F54C4F02D04FF4AA4094
:1008300070470846FCE700000020005270B50446EF
:1008400000200025012B02D10C4E306BDD06022B5F
:1008500003D10B4E30684FF0016500F00046266072
:10086000C0F30B0605EB06260E60C0F30B461660C0
:10087000166805EB0626166070BD000000200052C9
:10088000302100520249C8694FF60C718843704705
:100890000020005210B50023012A01D1084CA36B9F
:1008A000022A01D1074C2368DC43E4B20C600C68D7
:1008B00014B90024046001E00124046010BD0000AC
:1008C000002000523821005230B503F0010444B139
:1008D000A1F10064250A140A45EA04440443094DC1
:1008E000EC6203F00204022C0AD1A1F10164250A92
:1008F000A2F10164240A45EA04440443024D2C6039
:1009000030BD0000002000522C2100520349096A2A
:1009100021F47F410143014A1162704700200052D7
:1009200030B503F0010454B1A1F10064250A140AA2
:1009300045EA044400F000452C430A4D6C6303F083
:100940000204022C0CD1A1F10164250AA2F1016478
:10095000240A45EA044400F000452C43024D2C6073
:1009600030BD0000002000523421005230B500227A
:10097000002300F0010424B101F01004224343F0ED
:10098000100300F0020424B101F04004224343F0BC
:10099000400300F0040424B101F08004224343F03A
:1009A000800300F0080424B101F40034224343F42E
:1009B000003300F0100424B101F48024224343F4F6
:1009C000802300F0200424B101F4C014224343F436
:1009D000C01300F0400424B101F40014224343F496
:1009E000001300F4807424B101F00044224343F06A
:1009F000004300F0800424B101F00054224343F08E
:100A00000053034C246A9C431443014D2C6230BDB7
:100A10000020005270B5044600F06EFD054609E066
:100A2000601C38B100F068FD401BA04200D80CB932
:100A3000032070BD0D48C06900F001000028EFD10F
:100A40000A48C06900F0804068B10948806940F0F8
:100A50008040074988610548406A40F0804003496A
:100A600048620120E5E70020E3E700000020005293
:100A7000200500242DE9F04107460E4604240025F8
:100A800000F03AFD8046022E00D1344C0BE0781C79
:100A900048B100F031FDA0EB0800B84200D817B90A
:100AA0000320BDE8F0812E482040A04208D12D4807
:100AB00000692040A04201D101200DE000200BE0A0
:100AC0002948006824F00041084024F00041884291
:100AD00001D1012000E000200028D8D1012E05D14D
:100AE00020480069214900EA010505E01E48006828
:100AF0001F49084040F0004525F0004090B11D48D6
:100B0000806928431B49886115482840A84202D1C2
:100B10001448456104E025F000401349091D0860B0
:100B20000120BEE7012E0AD10E48006900F4803092
:100B3000B0F5803F0FD130040A4948610BE00A4804
:100B4000006800F48030B0F5803F04D14FF480306D
:100B50000549091D08600020A3E70000040000808B
:100B60000F00EF1F00200052102100520000EE176E
:100B70000000EE9720050024014600203C4A9142E7
:100B800003D2B1F1006F00D370E03A4A914204D22F
:100B9000374A914201D3012068E0374A914204D29A
:100BA000344A914201D3022060E0344A914204D297
:100BB000314A914201D3032058E0314A914204D294
:100BC0002E4A914201D3042050E02E4A914204D291
:100BD0002B4A914201D3052048E02B4A914204D28E
:100BE000284A914201D3062040E0B1F1016F04D2BE
:100BF000254A914201D3072038E0244A914204D289
:100C0000B1F1016F01D3002030E0214A914204D2BA
:100C10001E4A914201D3012028E01E4A914204D28B
:100C20001B4A914201D3022020E01B4A914204D288
:100C3000184A914201D3032018E0184A914204D285
:100C4000154A914201D3042010E0154A914204D282
:100C5000124A914201D3052008E0124A914204D27F
:100C60000F4A914201D3062000E0072070470000A0
:100C70000000020800000408000006080000080840
:100C800000000A0800000C0800000E08000012080E
:100C900000001408000016080000180800001A08D8
:100CA00000001C0800001E0870B503460C4600201A
:100CB0001F2100BF0D1EA1F1010106D001F01F068A
:100CC0000125B5402540002DF4D08AB1082A0BD06B
:100CD000102A05D0182A0CD1072900D301200AE0D8
:100CE000082900D3012006E0102900D3012002E0EA
:100CF00001E0012000BF00BF40B91D686C611D68A4
:100D0000AD6825F0180515431E68B56070BD00007C
:100D100010B504460CB9012010BD607F20B9002039
:100D20002077204600F036F802206077207948B915
:100D30001748216848612068806820F01800216801
:100D4000886007E02046D4E90212FFF7ADFF08B142
:100D50000120E1E7607920B94FF0FF302168086198
:100D600002E02168206908612068806820F0600046
:100D700061690843216888602068806820F08000ED
:100D8000A169084321688860012060770020C3E7DB
:100D9000B71DC10408B5094A016891420DD100BFD1
:100DA0000749096841F40021054A116011460968A4
:100DB00001F40021009100BF00BF08BD004C0258A3
:100DC000E044025870B5044600F096FB06462546FE
:100DD000681C10B104480078054400BF00F08CFB8B
:100DE000801BA842FAD370BD140000242DE9F04105
:100DF00004460E46002700BF4848007D012802D166
:100E00000220BDE8F08101204449087500BF0020A0
:100E10008861207900F0010030B101214CF250309E
:100E2000FFF728FE00B10127207900F00200022818
:100E300006D102214CF25030FFF71CFE00B1012711
:100E4000002F63D12068012828D161682069FFF74D
:100E500005FC207900F0010060B101214CF2503016
:100E6000FFF708FE00B101272D48C06820F00800F8
:100E70002B49C860207900F00200022846D10221E7
:100E80004CF25030FFF7F6FD00B10127254800680D
:100E900020F008002249C1F80C0137E04FF0FF3084
:100EA0003060A5682CE0284622696168FFF70CFBDA
:100EB000207900F0010060B101214CF25030FFF7C1
:100EC000D9FD07461648C06840F2047188431449AA
:100ED000C860207900F0020002280DD102214CF2F6
:100EE0005030FFF7C7FD07460E48006840F2047116
:100EF00088430B49C1F80C010FB1356005E06D1C4A
:100F0000D4E902100844A842CDD800BF00BF002099
:100F10000249087500BF384673E700002005002429
:100F2000002000520C21005210B50446162020600B
:100F3000FFF772FCE060FFF7A5FCA061FFF736FC4D
:100F40002061E069012802D0E069022817D12068F9
:100F500040F02900206004F10801201DE269FFF73C
:100F600099FC04F12802111F081FE369FFF730FC08
:100F700004F14002111F081FE369FFF75FFC04F151
:100F80003401081FFFF71AFC206840F04000206081
:100F900010BD000070B5044600BF3648007D012832
:100FA00001D1022070BD01203249087500BF002028
:100FB000886101214CF25030FFF75CFD08B101253A
:100FC00008E002214CF25030FFF754FD08B1012532
:100FD00000E00025002D45D1207800F0010058B137
:100FE0006068012804D1E169A068FFF7C5FB03E050
:100FF000E169A068FFF7A6FB207800F0020010B1BD
:10100000E068FFF783FC207800F0040018B1D4E911
:101010000501FFF7ABFC207800F0080028B1D4E907
:101020000730D4E90912FFF74FFC207800F01000D8
:10103000102802D12069FFF761FB207800F0400002
:10104000402804D1D4E90C12E06AFFF761FB207854
:1010500000F02000202805D1E369D4E90F12A06B2D
:10106000FFF75EFC00BF00200249087500BF28465C
:1010700098E70000200500240E48C06840F00100F9
:101080000C49C8600846C06800F0010008B901209A
:1010900070470948006840F001000649C1F80C019A
:1010A0000548006800F0010008B90120F0E70020C1
:1010B000EEE70000002000520C21005210B5012183
:1010C0004CF25030FFF798F908B1012408E00221F2
:1010D0004CF25030FFF790F908B1012400E00024F1
:1010E00054B90648806940F00200044988614CF216
:1010F0005030FFF78FFC0446204610BD0020005200
:101100000748806940F00100054988610846806908
:1011100000F0010008B9012070470020FCE7000042
:10112000002000520948806900F0010058B10848C9
:1011300006498860074888600846806900F0010019
:1011400008B1012070470020FCE700000020005299
:101150003B2A19087F6E5D4C2DE9F05F83460C46F3
:101160001746A046B9464FF0080A00BF4248007D26
:10117000012802D10220BDE8F09F01203E490875F8
:1011800000BFB4F1006F04D3B4F1016F01D20125A7
:1011900009E0B4F1016F04D3B4F1026F01D202256A
:1011A00001E00120E7E700203349886129464CF23D
:1011B0005030FFF75FFC0646002E55D1012D06D1B9
:1011C0002E48C06840F002002C49C86006E02C4858
:1011D000006840F002002949C1F80C0100BF00BFBF
:1011E00000BFBFF36F8F00BF00BF00BF00BF00BFD5
:1011F00000BFBFF34F8F00BF00BF00BF00BFD9F8D3
:101200000000C8F8000008F1040809F10409AAF177
:10121000010000F0FF0ABAF1000FF0D100BF00BFDB
:1012200000BFBFF36F8F00BF00BF00BF00BF00BF94
:1012300000BFBFF34F8F00BF00BF00BF29464CF275
:101240005030FFF717FC0646012D06D10B48C06849
:1012500020F002000949C86006E00948006820F053
:1012600002000649C1F80C0100BF002002490875C0
:1012700000BF30467FE70000200500240020005218
:101280000C2100521348C06800F0010058B1124808
:1012900010494860114848600846C06800F00100E5
:1012A00008B1012070470E48006800F0010070B1DD
:1012B00009480B490839086008480649C1F8040183
:1012C0000748006800F0010008B10120EAE70020AB
:1012D000E8E700000020005223016745AB89EFCD0D
:1012E0000C210052F8B502460B4600216F4DD7E0A5
:1012F00001278F401E6806EA0704002C72D01E7971
:1013000006F00306012E04D01E7906F00306022E15
:1013100013D190684F000326BE40B0434F00DE68F3
:10132000BE4030439060506801268E40B0431E7925
:10133000C6F300168E40304350601E7906F0030657
:10134000032E09D0D0684F000326BE40B0434F00A3
:101350009E68BE403043D0601E7906F00306022E20
:1013600013D1CF0802F1200656F827004E07F70EDA
:101370000F26BE40B0434F07FF0E1E69BE403043EC
:10138000CF0802F1200646F8270010684F00032618
:10139000BE40B0431E7906F003064F00BE40304306
:1013A00010605E6806F44036002E78D000BF404ED4
:1013B000366846F002063E4F3E603E46366806F00E
:1013C0000206009600BF00BF3A4E8F0856F827006D
:1013D0008E07370F0F26BE40B043374EB24202D1C0
:1013E00000262EE05BE0354EB24201D1012628E016
:1013F000334EB24201D1022623E0324EB24201D135
:1014000003261EE0304EB24201D1042619E02F4ED1
:10141000B24201D1052614E02D4EB24201D106267A
:101420000FE02C4EB24201D107260AE02A4EB2420A
:1014300001D1082605E0294EB24201D1092600E07B
:101440000A268F073F0FBE4030431A4E8F0846F8DA
:1014500027004FF0B0463068A0435E6806F480165F
:1014600006B120434FF0B04630607068A0435E681C
:1014700006F4001606B120434FF0B046706068686D
:10148000A0435E6806F4003606B120436860286811
:10149000A0435E6806F4803606B120432860491CEC
:1014A0001E68CE40002E7FF423AFF8BD80000058A8
:1014B000F44402580804005800000258000402587E
:1014C00000080258000C025800100258001402587C
:1014D00000180258001C025800200258002402582C
:1014E0000AB1816101E00B04836170470148006823
:1014F000000C70470010005C014800687047000055
:101500000C00002403480068034909780844014995
:10151000086070470C0000241400002410B503205C
:1015200000F00CF901F032FC10490968C1F3032105
:101530000F4A515C01F01F0120FA01F40B480068CA
:1015400000F00F001146085C00F01F0024FA00F0C4
:1015500008490860084804600F2000F00FF808B13F
:10156000012010BD00F09AF80020FAE71844025854
:10157000885B00081C0000241800002470B5044695
:101580001148007808B9012070BD0F4800784FF469
:101590007A71B1FBF0F00D490968B1FBF0F528460E
:1015A00002F00AF908B10120EEE7102C07D2002260
:1015B0002146501E00F084F80548046001E0012037
:1015C000E2E70020E0E700001400002418000024F7
:1015D000100000244178154A11600178F9B1121DFC
:1015E00041681160017B0907C27A41EA0261827A8F
:1015F00041EAC241427B41EA8241827B41EA424167
:10160000C27B41EA0241427A41EA0221027A41EA7E
:10161000420102781143054A0832116005E00021B9
:10162000024A121D1160121D1160704798ED00E012
:1016300000BF00BF00BFBFF35F8F00BF00BF00BF90
:101640000548006820F48030034908600020024902
:10165000703108607047000024ED00E040F00101A7
:101660000D4A11600C497039096841F480310A4A09
:10167000703A116000BF00BF00BFBFF34F8F00BFC3
:1016800000BF00BF00BF00BF00BFBFF36F8F00BF30
:1016900000BF00BF7047000094ED00E008B500BF38
:1016A0000648006840F002000449086008460068E7
:1016B00000F00200009000BF00BF08BDF4440258D3
:1016C0002DE9F05F80460D46164604F0C3F9074643
:1016D00039462A46334601F00700C0F1070ABAF13D
:1016E000040F02D94FF0040A01E0C0F1070AD14605
:1016F00000F1040ABAF1070F02D24FF0000A01E02C
:10170000A0F1030AD4464FF0010A0AFA09FAAAF135
:10171000010A0AEA020A0AFA0CFA4FF0010B0BFA64
:101720000CFBABF1010B0BEA030B4AEA0B0421465D
:10173000404604F097F9BDE8F09F000000BF00F0BC
:101740000702064B19684FF6FF031940044B0B4381
:1017500043EA0221014B196000BF70470CED00E025
:101760000000FA0570B5044615480068C0F3800013
:1017700048B91348006800F00700A04201D00120DA
:1017800070BD0020FCE70E48006820F007002043F1
:101790000B490860FFF7B0FE054607E0FFF7ACFE17
:1017A000401BB0F57A7F01D90120E9E704480838E9
:1017B0000068C0F340300028F0D00020E0E70000CF
:1017C0000C48025810B501F097FA05490968C1F3B1
:1017D0000211044A515C01F01F01C84010BD000015
:1017E00020440258885B000870B50146844D2D687E
:1017F00005F00303824D2D68C5F30530804D2D1D86
:101800002D68C5F300147E4D14352D68C5F3CC0545
:1018100015FB04F501EE105AB8EE411AF0EE410A3C
:1018200000286FD023B1012B4ED0022B6BD16BE07F
:10183000734D283D2D68C5F340153DB3704D283DCF
:101840002D68C5F3C1066F4D25FA06F201EE102A88
:10185000F8EE411A01EE100AB8EE411A81EE812A23
:101860009FED691AC0EE811A654D10352D68C5F3DC
:10187000080501EE105AB8EE411A31EE811AF7EE62
:10188000001A31EE211A22EE010A1CE001EE100AC4
:10189000B8EE411ADFED5D1A81EE812A9FED5A1AEA
:1018A000C0EE811A564D10352D68C5F3080501EEBE
:1018B000105AB8EE411A31EE811AF7EE001A31EEE5
:1018C000211A22EE010A5BE001EE100AB8EE411A7D
:1018D000DFED4F1A81EE812A9FED4B1AC0EE811A7F
:1018E000474D10352D68C5F3080501EE105AB8EEC6
:1018F000411A31EE811AF7EE001A31EE211A22EE6A
:10190000010A3DE077E01DE001EE100AB8EE411A51
:101910009FED402AC2EE011A9FED3B1A80EE812A0C
:10192000374D10352D68C5F3080501EE105AB8EE95
:10193000411A32EE011AB7EE002A31EE021A21EEF8
:10194000810A1DE001EE100AB8EE411ADFED301AEF
:1019500081EE812A9FED2C1AC0EE811A284D103598
:101960002D68C5F3080501EE105AB8EE411A31EEA4
:10197000811AF7EE001A31EE211A22EE010A00BF99
:1019800000BF1F4D10352D68C5F3462501EE105AD6
:10199000B8EE411AF7EE001A31EE211AC0EE011A24
:1019A000BCEEE11A81ED001A154D10352D68C5F316
:1019B000064501EE105AB8EE411AF7EE001A31EE64
:1019C000211AC0EE011ABCEEE11A81ED011A0C4D8C
:1019D00010352D68C5F3066501EE105AB8EE411AB0
:1019E000F7EE001A31EE211AC0EE011ABCEEE11A30
:1019F00081ED021A03E000250D604D608D6070BD21
:101A0000284402580090D003000000460024744C83
:101A10000024744A20BCBE4B70B50146844D2D682D
:101A200005F00303824D2D68C5F30550804D2D1D33
:101A30002D68C5F300247E4D1C352D68C5F3CC05FB
:101A400015FB04F501EE105AB8EE411AF0EE410A0A
:101A500000286FD023B1012B4ED0022B6BD16BE04D
:101A6000734D283D2D68C5F340153DB3704D283D9D
:101A70002D68C5F3C1066F4D25FA06F201EE102A56
:101A8000F8EE411A01EE100AB8EE411A81EE812AF1
:101A90009FED691AC0EE811A654D18352D68C5F3A2
:101AA000080501EE105AB8EE411A31EE811AF7EE30
:101AB000001A31EE211A22EE010A1CE001EE100A92
:101AC000B8EE411ADFED5D1A81EE812A9FED5A1AB8
:101AD000C0EE811A564D18352D68C5F3080501EE84
:101AE000105AB8EE411A31EE811AF7EE001A31EEB3
:101AF000211A22EE010A5BE001EE100AB8EE411A4B
:101B0000DFED4F1A81EE812A9FED4B1AC0EE811A4C
:101B1000474D18352D68C5F3080501EE105AB8EE8B
:101B2000411A31EE811AF7EE001A31EE211A22EE37
:101B3000010A3DE077E01DE001EE100AB8EE411A1F
:101B40009FED402AC2EE011A9FED3B1A80EE812ADA
:101B5000374D18352D68C5F3080501EE105AB8EE5B
:101B6000411A32EE011AB7EE002A31EE021A21EEC6
:101B7000810A1DE001EE100AB8EE411ADFED301ABD
:101B800081EE812A9FED2C1AC0EE811A284D18355E
:101B90002D68C5F3080501EE105AB8EE411A31EE72
:101BA000811AF7EE001A31EE211A22EE010A00BF67
:101BB00000BF1F4D18352D68C5F3462501EE105A9C
:101BC000B8EE411AF7EE001A31EE211AC0EE011AF2
:101BD000BCEEE11A81ED001A154D18352D68C5F3DC
:101BE000064501EE105AB8EE411AF7EE001A31EE32
:101BF000211AC0EE011ABCEEE11A81ED011A0C4D5A
:101C000018352D68C5F3066501EE105AB8EE411A75
:101C1000F7EE001A31EE211AC0EE011ABCEEE11AFD
:101C200081ED021A03E000250D604D608D6070BDEE
:101C3000284402580090D003000000460024744C51
:101C40000024744A20BCBE4B2DE9F0410446002517
:101C5000A846206800F00060B0F1006F30D1606EDF
:101C600048B1B0F5801F0DD0B0F5001F10D0B0F511
:101C7000401F15D113E0F948006840F40030F749DF
:101C800008600FE00221201D02F0D0FB054609E0AC
:101C9000022104F1240002F07BFC054602E001E091
:101CA000012500BF00BF55B9EC482430006820F47E
:101CB0004010616E0843E9492431086000E0A846FD
:101CC000208800F48070B0F5807F2DD1606D0528EC
:101CD0001AD2DFE800F0030A10171800DF48006886
:101CE00040F40030DD49086010E00021201D02F0C2
:101CF0009DFB05460AE0002104F1240002F048FCA7
:101D0000054603E002E001E0012500BF00BF55B930
:101D1000D2482430006820F00700616D0843CF49A5
:101D20002431086000E0A846208800F40070B0F577
:101D3000007F33D1A06D802817D003DC40B140284C
:101D40001CD10CE0C02817D0B0F5807F16D114E06C
:101D5000C248006840F40030C049086010E000212B
:101D6000201D02F063FB05460AE0002104F1240077
:101D700002F00EFC054603E002E001E0012500BF91
:101D800000BF55B9B5482430006820F4E070A16D5B
:101D90000843B2492431086000E0A846208800F4D6
:101DA0008060B0F5806F38D1D4F8A400B0F5800F12
:101DB00019D004DC50B1B0F5001F1DD10DE0B0F515
:101DC000C00F17D0B0F5000F16D114E0A34800687B
:101DD00040F40030A149086010E00021201D02F00D
:101DE00025FB05460AE0002104F1240002F0D0FBA7
:101DF000054603E002E001E0012500BF00BF5DB938
:101E000096482C30006820F46000D4F8A4100843F1
:101E100092492C31086000E0A846208800F4006058
:101E2000B0F5006F38D1D4F8A800B0F1007F19D018
:101E300004DC50B1B0F1807F1DD10DE0B0F1407FE6
:101E400017D0B0F1806F16D114E08448006840F4D8
:101E500000308249086010E00021201D02F0E6FAFF
:101E600005460AE0002104F1240002F091FB05463A
:101E700003E002E001E0012500BF00BF5DB9774843
:101E80002C30006820F0E060D4F8A81008437349B3
:101E90002C31086000E0A846206800F00070B0F126
:101EA000007F27D1A06CA0B1102804D0202809D031
:101EB00030280FD10CE06948006840F400306749D1
:101EC000086009E00221201D02F0B0FA054603E097
:101ED00002E001E0012500BF00BF55B95F48203096
:101EE000006820F03000A16C08435C492031086094
:101EF00000E0A846208800F48050B0F5805F36D11D
:101F0000E06DB0F5005F19D004DC50B1B0F5805F32
:101F10001DD10DE0B0F5405F17D0B0F5804F16D160
:101F200014E04E48006840F400304C49086010E06E
:101F30000021201D02F07AFA05460AE0002104F192
:101F4000240002F025FB054603E002E001E0012544
:101F500000BF00BF55B941482430006820F4E0407C
:101F6000E16D08433D492431086000E0A84620881F
:101F700000F40050B0F5005F34D1206EB0F5403F62
:101F80001DD007DC68B1B0F5803F0BD0B0F5003F45
:101F900018D10DE0B0F5802F12D0B0F5A02F11D1DF
:101FA0000FE011E00121201D02F040FA05460BE090
:101FB000012104F1240002F0EBFA054604E003E0FD
:101FC00002E001E0012500BF00BF55B923482430DD
:101FD000006820F4E020216E084320492431086085
:101FE00000E0A846208800F48040B0F5804F38D14A
:101FF000D4F8AC00B0F1405F1DD007DC68B1B0F19F
:10200000805F0BD0B0F1005F18D10DE0B0F1804FD0
:1020100012D0B0F1A04F11D10FE011E00121201D2D
:1020200002F004FA05460BE0012104F1240002F05D
:10203000AFFA054604E003E002E001E0012500BF3D
:1020400000BF6DB905482C30006820F0E040D4F89E
:10205000AC10084301492C31086002E02C440258BE
:10206000A846208800F40040B0F5004F26D1E06E6D
:1020700098B1B0F1805F03D0B0F1005F0ED106E0FF
:10208000F948006840F40030F749086008E0012191
:10209000201D02F0CBF9054602E001E0012500BF5A
:1020A00000BF55B9F0482430006820F04050E16E80
:1020B0000843ED492431086000E0A846206800F09C
:1020C0008070B0F1807F27D1606CA0B1012804D06E
:1020D000022809D003280FD10CE0E348006840F43F
:1020E0000030E149086009E00221201D02F09EF95C
:1020F000054603E002E001E0012500BF00BF55B93D
:10210000D9482030006820F00300616C0843D649AC
:102110002031086000E0A846206800F48000B0F597
:10212000800F7DD1D148006840F48070CF490860AD
:10213000FFF7E2F9064606E0FFF7DEF9801B6428A8
:1021400001D9032505E0C948006800F48070002823
:10215000F2D000BF85BBC4484430006800F4407032
:10216000B4F8B01001F44071884213D0BE48443036
:10217000006820F44077BC484430006840F4803068
:10218000B949443108600846006820F4803008608E
:1021900008460760D4F8B000B0F5807F15D1FFF78E
:1021A000ABF9064609E0FFF7A7F9801B41F2883139
:1021B000884202D9032507E038E0AB484430006884
:1021C000C0F340000028EED000BF55BB00BFB4F8FC
:1021D000B00000F44070B0F5407F0ED1A2481C382A
:1021E000006820F47C51A24AD4F8B000104041EAC3
:1021F00010109D491C39086007E09B481C38006896
:1022000020F47C5098491C39086097484430006895
:10221000B4F8B010C1F30B0108439349443101E015
:1022200005E001E0086002E0A84600E0A84620784A
:1022300000F0010068B3A06F182819D005DC48B180
:10224000082808D0102816D10BE0202811D0282803
:1022500011D10FE011E00121201D02F0E7F8054641
:102260000BE0012104F1240002F092F9054604E09C
:1022700003E002E001E0012500BF00BF55B97A4844
:102280002830006820F03800A16F084376492831D3
:10229000086000E0A846207800F00200022828D15B
:1022A000606F062815D2DFE800F003040A1112134C
:1022B00011E00121201D02F0B9F805460BE00121D3
:1022C00004F1240002F064F9054604E003E002E0B2
:1022D00001E0012500BF00BF55B963482830006800
:1022E00020F00700616F08435F492831086000E073
:1022F000A846207800F0040004282AD1D4F89000E1
:10230000062815D2DFE800F003040A11121311E0C9
:102310000121201D02F08AF805460BE0012104F19D
:10232000240002F035F9054604E003E002E001E094
:10233000012500BF00BF5DB94B482C30006820F07C
:102340000700D4F89010084347492C31086000E09A
:10235000A846207800F02000202836D1D4F88C0040
:10236000B0F1405F1DD007DC68B1B0F1805F0BD0E9
:10237000B0F1005F18D10DE0B0F1804F12D0B0F194
:10238000A04F11D10FE011E00021201D02F04EF806
:1023900005460BE0022104F1240002F0F9F805469D
:1023A00004E003E002E001E0012500BF00BF5DB9E9
:1023B0002D482830006820F0E040D4F88C10084305
:1023C00029492831086000E0A846207800F0400044
:1023D000402836D1D4F89800B0F5406F1DD007DC06
:1023E00068B1B0F5806F0BD0B0F5006F18D10DE07B
:1023F000B0F5805F12D0B0F5A05F11D10FE011E011
:102400000021201D02F012F805460BE0022104F124
:10241000240002F0BDF8054604E003E002E001E01C
:10242000012500BF00BF5DB90F482C30006820F4C3
:10243000E050D4F8981008430B492C31086000E0B4
:10244000A846207800F0800080283AD1D4F89C007B
:10245000B0F5C04F23D00DDC98B1B0F5005F11D0BE
:10246000B0F5804F1ED113E02C44025800480258AA
:10247000FFFCFF0FB0F5004F12D0B0F5204F11D187
:102480000FE011E00021201D01F0D0FF05460BE018
:10249000022104F1240002F07BF8054604E003E089
:1024A00002E001E0012500BF00BF4DB9BE48006851
:1024B00020F46040D4F89C100843BB49086000E059
:1024C000A846207800F00800082817D1D4F880002A
:1024D000B0F5805F07D1022104F1240002F058F822
:1024E00008B14FF00108B048001F006820F44050C8
:1024F000D4F880100843AC49091F0860207800F028
:102500001000102815D1D4F89400B0F5807F07D1C1
:10251000022104F1240002F03BF808B14FF0010859
:10252000A148006820F44070D4F8941008439E49F4
:102530000860206800F40020B0F5002F26D1D4F800
:10254000A00030B1B0F5803F09D0B0F5003F0ED10A
:102550000CE00021201D01F069FF054609E0022181
:1025600004F1240002F014F8054602E001E0012520
:1025700000BF00BF4DB98C48006820F44030D4F84B
:10258000A01008438849086000E0A846206800F4CD
:102590008020B0F5802F2DD1D4F88400B0F5801FB5
:1025A00006D0B0F5001F0CD0B0F5401F11D10FE0E0
:1025B0007D482C38006840F400307B492C39086095
:1025C00009E0012104F1240001F0E2FF054602E0E8
:1025D00001E0012500BF00BF5DB97348001F00681E
:1025E00020F44010D4F8841008436F49091F086094
:1025F00000E0A846206800F48030B0F5803F24D188
:10260000E06C18B1B0F5803F0FD108E066482C3877
:10261000006840F4003064492C39086007E002216A
:10262000201D01F003FF054601E0012500BF00BFAA
:1026300055B95D480C38006820F48030E16C0843DF
:1026400059490C39086000E0A846206800F00050A5
:10265000B0F1005F07D1022104F1240001F098FFDE
:1026600008B14FF00108206800F40030B0F5003FD9
:1026700027D1E06FA0B1B0F5807F06D0B0F5007F24
:102680000CD0B0F5407F0CD109E047482C380068E9
:1026900040F4003044492C39086004E003E002E0D3
:1026A00001E0012500BF00BF55B93F48001F006889
:1026B00020F44070E16F08433B49091F086000E0C7
:1026C000A846206800F48010B0F5801F09D1364874
:1026D0000838006820F00040216F0843324908396B
:1026E0000860206800F08050B0F1805F0AD12E4869
:1026F0004838006820F48040D4F8B41008432A49D0
:1027000048390860206800F40010B0F5001F09D1B6
:1027100025480838006820F08070A16E08432249DF
:1027200008390860206800F08040B0F1804F11D176
:1027300000BF1D484838006820F400401A49483955
:10274000086008460068D4F8B810084316494839AC
:10275000086000BF206800F00040B0F1004F09D1D0
:1027600011480C38006820F04050216D08430E4994
:102770000C390860206800F40000B0F5000F0AD1A1
:102780000948001F006820F44000D4F8881008436E
:102790000549091F0860B8F1000F02D10020BDE80B
:1027A000F0810120FBE70000584402582DE9F04178
:1027B00004460D4614B90120BDE8F081BD4800680B
:1027C00000F00F00A8420ED2BA48006820F00F00B7
:1027D0002843B84908600846006800F00F00A84286
:1027E00001D00120E8E7207800F0040004280ED191
:1027F000B1492069096801F07001884207D9AE48E3
:10280000006820F0700021690843AB490860207817
:1028100000F00800082811D1A749091D606909685E
:1028200001F07001884209D9A348001D006820F01A
:10283000700061690843A049091D0860207800F014
:102840001000102811D19C49091DA069096801F4E4
:10285000E061884209D99848001D006820F4E060D2
:10286000A16908439449091D0860207800F0200000
:10287000202811D190490831E069096801F0700100
:10288000884209D98C480830006820F07000E1695E
:102890000843894908310860207800F002000228C6
:1028A0000ED18549E068096801F00F01884207D917
:1028B0008148006820F00F00E16808437E49086005
:1028C000207800F00100002850D07B48006820F4F8
:1028D0007060A1680843784908606068022807D1E1
:1028E000754818380068C0F34040F8B9012063E724
:1028F0006068032807D1704818380068C0F340604A
:10290000A0B9012058E76068012807D16A48183843
:102910000068C0F3002048B901204DE76648183828
:102920000068C0F3800008B9012045E76248083814
:10293000006820F00700616808435F4908390860B3
:10294000FEF7DAFD064608E0FEF7D6FD801B41F2F1
:102950008831884201D903202EE75748083800689B
:1029600000F038006168B0EBC10FEDD1207800F0C5
:10297000020002280ED15049E068096801F00F01F9
:10298000884207D24C48006820F00F00E1680843F5
:10299000494908604748006800F00F00A8420ED976
:1029A0004448006820F00F00284342490860084668
:1029B000006800F00F00A84201D00120FCE620785A
:1029C00000F0040004280ED13B492069096801F099
:1029D0007001884207D23848006820F070002169F1
:1029E000084335490860207800F00800082811D114
:1029F0003149091D6069096801F07001884209D2F6
:102A00002D48001D006820F07000616908432A49C4
:102A1000091D0860207800F01000102811D1264907
:102A2000091DA069096801F4E061884209D22248C1
:102A3000001D006820F4E060A16908431E49091DDB
:102A40000860207800F02000202811D11A490831B0
:102A5000E069096801F07001884209D2164808301F
:102A6000006820F07000E1690843134908310860EC
:102A700000F08CF910490968C1F303210F4A515C39
:102A800001F01F0120FA01F70B48006800F00F0069
:102A90001146085C00F01F0027FA00F008490860A2
:102AA0000848076008480068FEF768FD8046404611
:102AB00082E600000020005218440258885B00089B
:102AC0001C000024180000241000002410B58048C9
:102AD000006800F00F0007280ED27D48006820F043
:102AE0000F00C01D7A4908600846006800F00F001A
:102AF000072801D0012010BDFEF7FEFC04467548F2
:102B0000006840F001007349086006E0FEF7F4FC3D
:102B1000001B022801D90320EDE76E48006800F091
:102B200004000028F2D06B48001D006840F080408F
:102B30006849091D08600020664910310860664830
:102B4000664908606649086066480068FEF716FD39
:102B500008B10120CFE7FEF7CFFC044608E0FEF7FE
:102B6000CBFC001B41F28831884201D90320C2E727
:102B700058481030006800F038000028EFD1FEF708
:102B8000BBFC044653480068574908405149086057
:102B900006E0FEF7B1FC001B642801D90320AAE778
:102BA0004C48006800F400300028F2D1FEF7A4FC85
:102BB00004464848006820F080704649086006E0F6
:102BC000FEF79AFC001B022801D9032093E7414835
:102BD000006800F000700028F2D1FEF78DFC04467A
:102BE0003C48006820F080603A49086006E0FEF743
:102BF00083FC001B022801D903207CE735480068CC
:102C000000F000600028F2D1FEF776FC044631485F
:102C1000006820F080502F49086006E0FEF76CFC49
:102C2000001B022801D9032065E72A48006800F04C
:102C300000500028F2D1274918310860091D0860AA
:102C4000091D086029482349283108602848091DC2
:102C500008602848091D08600020091D08602548F3
:102C6000091D08600020091D08602248091D086030
:102C70000020091D08601748006820F480201549CD
:102C800008600020134960310860401E1149683116
:102C900008601048D030006840F480300D49D031D1
:102CA00008600B48006800F00F0007280ED908489C
:102CB000006820F00F00C01D054908600846006844
:102CC00000F00F00072801D0012014E7002012E7D0
:102CD00000200052004402580090D0031800002445
:102CE0001C0000241000002445EDF6FF0002020243
:102CF0000000FF018002010110B500F047F80D4906
:102D00000968C1F303210C4A515C01F01F0120FA4C
:102D100001F40848006800F00F001146085C00F05C
:102D20001F0024FA00F005490860054804600846C1
:102D3000006810BD18440258885B00081C0000247D
:102D40001800002400B5FFF7D7FF05490968C1F353
:102D50000211044A515C01F01F01C84000BD00008F
:102D60001C440258885B000800B5FFF7C5FF054901
:102D70000968C1F30221044A515C01F01F01C840F7
:102D800000BD00001C440258885B0008F0B5824E6C
:102D9000366806F0380636B1082E15D0102E15D03C
:102DA000182E7DD114E07C4E103E3668C6F34016D6
:102DB00046B1794E103E3668C6F3C107774E26FA03
:102DC00007F000E07548E5E07548E3E07548E1E0AC
:102DD000714E1836366806F003046F4E18363668A2
:102DE000C6F305116C4E1C36366806F001056A4EB6
:102DF00024363668C6F3CC0616FB05F601EE106ADB
:102E0000B8EE410A002971D024B1012C50D0022C17
:102E10006DD16DE0604E103E3668C6F340163EB38D
:102E20005D4E103E3668C6F3C1075C4E26FA07F3C6
:102E300001EE103AF8EE411A01EE101AB8EE411AFE
:102E400081EE812A9FED581AC0EE011A524E2036AB
:102E50003668C6F3080601EE106AB8EE411A31EE84
:102E6000811AF7EE001A31EE211A62EE010A1EE015
:102E700001EE101AB8EE411ADFED4C1A81EE812AEC
:102E80009FED491AC0EE011A434E20363668C6F34C
:102E9000080601EE106AB8EE411A31EE811A00E020
:102EA00076E0F7EE001A31EE211A62EE010A5BE0DD
:102EB00001EE101AB8EE411A9FED3D2AC2EE011A3A
:102EC0009FED391A80EE012A334E20363668C6F35C
:102ED000080601EE106AB8EE411A32EE011AB7EE9A
:102EE000002A31EE021A61EE810A3DE04EE01DE05B
:102EF00001EE101AB8EE411ADFED2E1A81EE812A8A
:102F00009FED291AC0EE011A234E20363668C6F30B
:102F1000080601EE106AB8EE411A31EE811AF7EE9A
:102F2000001A31EE211A62EE010A1DE001EE101ABC
:102F3000B8EE411A9FED1E2AC2EE011A9FED1A1A31
:102F400080EE012A144E20363668C6F3080601EEDC
:102F5000106AB8EE411A32EE011AB7EE002A31EECD
:102F6000021A61EE810A00BF00BF0B4E20363668A0
:102F7000C6F34626721C01EE102AB8EE411AC0EEC6
:102F8000811ABCEEE11A11EE100A00E0002001E007
:102F9000034800BF00BFF0BD104402580090D003AA
:102FA00000093D0040787D01000000460024744C7B
:102FB0000024744A20BCBE4B2DE9F047044614B9E6
:102FC0000120BDE8F087207800F00100002870D0D3
:102FD000FA48006800F03808F8481830D0F8009037
:102FE000B8F1100F06D0B8F1180F0FD109F0030097
:102FF00002280BD1F14810380068C0F34040002887
:103000006AD06068002867D10120DAE700BF6068F5
:10301000B0F5803F08D1E9481038006840F48030AE
:10302000E649103908602EE0606868B9E348103856
:10303000006820F48030E1491039086008460068D3
:1030400020F4802008601EE06068B0F5A02F0DD14C
:10305000DA481038006840F48020D84910390860F8
:103060000846006840F4803008600CE0D34810380F
:10307000006820F48030D1491039086008460068A3
:1030800020F48020086000BF606898B1FEF734FA31
:10309000054606E0FEF730FA401B642801D90320FC
:1030A0008FE7C64810380068C0F340400028F1D0D0
:1030B00012E012E0FEF720FA054606E0FEF71CFAE1
:1030C000401B642801D903207BE7BC481038006806
:1030D000C0F340400028F1D100BF207800F002008A
:1030E000022874D1B548006800F03808B348183099
:1030F000D0F80090B8F1000F05D0B8F1180F56D1F4
:1031000009F00300D0BBAD4810380068C0F3800060
:1031100018B1E06808B9012053E7A84810380068E2
:1031200020F01900E1680843A44910390860FEF74F
:10313000E3F9054606E0FEF7DFF9401B022801D956
:1031400003203EE79D4810380068C0F38000002847
:10315000F1D000BFFEF7CAF941F2030188421AD844
:10316000206940280BD195480C38006820F47C3049
:1031700040F4003091490C39086017E017E08F489F
:103180000C38006820F47C30216940EA01308B491A
:103190000C3908600AE089480C38006820F0FE40CD
:1031A000217C40EA016085490C39086066E0E068EE
:1031B00088B382481038006820F01900E16808439D
:1031C0007E4910390860FEF797F9054607E056E09A
:1031D000FEF792F9401B022801D90320F1E6774857
:1031E00010380068C0F380000028F1D000BFFEF75F
:1031F0007DF941F2030188421AD8206940280BD199
:103200006E480C38006820F47C3040F400306B4984
:103210000C39086017E017E068480C38006820F4A3
:103220007C30216940EA013064490C3908600AE0C9
:1032300062480C38006820F0FE40217C40EA0160C2
:103240005E490C39086019E05C481038006820F0CD
:1032500001005A4910390860FEF74EF9054606E0AC
:10326000FEF74AF9401B022801D90320A9E653487A
:1032700010380068C0F380000028F1D100BF20782A
:1032800000F0100010287CD14C48006800F038088D
:103290004A481830D0F80090B8F1080F06D0B8F1BD
:1032A000180F3DD109F00300012839D143481038E7
:1032B0000068C0F3002020B1E069802801D001201F
:1032C0007FE600BFFEF712F941F2030188421AD8E7
:1032D000206A20280AD139480C38006820F0F840CC
:1032E00040F0804035490C39086018E033480C380C
:1032F000006820F0F84094F8201040EA81602F49DF
:103300000C3908600BE02D48001F006820F07C504D
:1033100094F8201040EA01602849091F086066E01F
:10332000E06978B325481038006840F080002349F0
:1033300010390860FEF7E0F8054606E0FEF7DCF815
:10334000401B022801D903203BE61C4810380068C6
:10335000C0F300200028F1D000BFFEF7C7F841F20B
:10336000030188421CD8206A20280CD113480C384D
:10337000006820F0F84040F0804010490C390860A7
:103380001AE035E01CE00D480C38006820F0F840E9
:1033900094F8201040EA816008490C3908600BE07D
:1033A0000648001F006820F07C5094F8201040EA86
:1033B00001600249091F086019E00000104402582A
:1033C000FA48006820F08000F8490860FEF794F899
:1033D000054606E0FEF790F8401B022801D90320BD
:1033E000EFE5F2480068C0F300200028F2D100BFEA
:1033F000207800F00800082836D16069D0B1EB4889
:103400007430006840F00100E84974310860FEF74C
:1034100073F8054606E0FEF76FF8401B022801D955
:103420000320CEE5E14874300068C0F34000002876
:10343000F1D019E0DD487430006820F00100DB496C
:1034400074310860FEF758F8054606E0FEF754F8B8
:10345000401B022801D90320B3E5D448743000682A
:10346000C0F340000028F1D1207800F0200020288F
:1034700030D1A069B8B1CD48006840F48050CB4944
:103480000860FEF739F8054606E0FEF735F8401B00
:10349000022801D9032094E5C4480068C0F34030F5
:1034A0000028F2D016E0C148006820F48050BF49DF
:1034B0000860FEF721F8054606E0FEF71DF8401B00
:1034C000022801D903207CE5B8480068C0F34030E9
:1034D0000028F2D1207800F0040004287DD1B448FF
:1034E000006840F48070B2490860FEF705F80546B0
:1034F00006E0FEF701F8401B642801D9032060E5CF
:10350000AB48006800F480700028F2D000BFA068CB
:10351000012808D1A5487030006840F00100A34997
:10352000703108602DE0A06868B9A048703000686C
:1035300020F001009D49703108600846006820F0C5
:10354000040008601DE0A06805280DD19748703080
:10355000006840F004009549703108600846006832
:1035600040F0010008600CE090487030006820F0E6
:1035700001008E49703108600846006820F00400A0
:10358000086000BFA068A0B1FDF7B6FF054608E0DF
:10359000FDF7B2FF401B41F28831884201D9032078
:1035A0000FE5824870300068C0F340000028EFD07B
:1035B00013E0FDF7A1FF054608E0FDF79DFF401B66
:1035C00041F28831884201D90320FAE4774870300B
:1035D0000068C0F340000028EFD1606A00287DD069
:1035E00072481030006800F03800182877D0606A00
:1035F000022875D16D48006820F080706B49086022
:10360000FDF77AFF054606E0FDF776FF401B02282E
:1036100001D90320D5E465480068C0F34060002864
:10362000F2D100BFD4E90A1041EA00105F49283105
:10363000096840F2F332914308435C49283108603D
:10364000208E401EC0F30800616B491E4FF47E427D
:1036500002EA41210843218F491ED20102EA0141B9
:1036600008433C21095D491E120202EA0161084338
:103670004E493031086000BF081F006820F001008B
:10368000091F08604948343000684FF6F8718843D4
:10369000A16C40EAC10045493431086043482C30F0
:1036A000006820F00C00216C084340492C31086070
:1036B0000846006820F00200616C08433B492C3149
:1036C00008600846006840F48030086008460068DA
:1036D00040F4003008600846006802E06AE038E024
:1036E0001FE040F4802008600846006840F00100B8
:1036F00008602E48006840F080702C490860FDF793
:10370000FBFE054606E0FDF7F7FE401B022801D947
:10371000032056E425480068C0F340600028F2D03A
:1037200048E02248006820F0807020490860FDF7DA
:10373000E3FE054606E0FDF7DFFE401B022801D947
:1037400003203EE419480068C0F340600028F2D12D
:1037500030E0164828300768144830300668606A40
:10376000012821D007F00301A06A81421CD1C7F3D0
:103770000511E06A884217D1C6F30801206B401E8C
:10378000814211D1606B401EC6F3462188420BD1A5
:10379000A06B401EC6F30641884205D1E06B401E77
:1037A000C6F30661884205D001200AE400440258AD
:1037B00000480258002004E470B504462546681EFF
:1037C000B0F1807F01D301200FE0681E4FF0E021AF
:1037D00048610F214FF0FF3002F044F900204FF014
:1037E000E021886107200861002070BD014600BF0C
:1037F00091F88000012801D102207047012081F852
:10380000800000BF2420C1F88400086802680868AE
:10381000006820F001000B68186022F000520020C0
:103820004866086802602020C1F8840000BF0020BC
:1038300081F8800000BF00BFDFE770B504460D4689
:1038400000BF94F88000012801D1022070BD012042
:1038500084F8800000BF2420C4F884002068066833
:103860002068006820F001002168086020688068F6
:1038700020F06060284321688860204601F05AFAF1
:10388000206806602020C4F8840000BF002084F86F
:10389000800000BF00BFD9E770B504460D4600BFE9
:1038A00094F88000012801D1022070BD012084F825
:1038B000800000BF2420C4F88400206806682068C7
:1038C000006820F00100216808602068806820F00E
:1038D0006040284321688860204601F02BFA206868
:1038E00006602020C4F8840000BF002084F8800017
:1038F00000BF00BFD9E710B504460CB9012010BDC8
:10390000A06900B100E000BFD4F8840028B900200D
:1039100084F88000204600F02BF82420C4F88400AE
:103920002068006820F0010021680860204601F04E
:10393000E5FA012800D1E2E7A06A10B1204601F0C3
:1039400025FA2068406820F490402168486020688B
:10395000806820F02A00216888602068006840F0B4
:10396000010021680860204601F08CFAC7E70000DA
:1039700010B5B6B00446142131A8FCF7E1FCBC2117
:1039800002A8FCF7DDFC1E492068884235D10120E1
:1039900002900020209002A8FEF756F908B1FCF72B
:1039A00028FD00BF1748006840F010001549086066
:1039B0000846006800F01000019000BF00BF00BF83
:1039C00010481038006840F001000E4910390860B6
:1039D0000846006800F00100019000BF00BF4FF4EE
:1039E000C060319002203290002033903490072044
:1039F000359031A90448FDF775FC36B010BD0000C4
:103A000000100140F0440258000002582DE9F84F20
:103A100004460E4617469A46D4F88800202873D1EB
:103A200006B117B90120BDE8F88F00BF94F88000F7
:103A3000012801D10220F6E7012084F8800000BFB0
:103A400000205C3420632220E06200202061FDF72A
:103A500053FD8346278067805C3C00BFA068B0F5BB
:103A6000805F0AD1206920B940F2FF10A4F86000FD
:103A700020E0FF20A4F860001CE0A06848B920699D
:103A800018B9FF20A4F8600014E07F20A4F86000BB
:103A900010E0A068B0F1805F09D1206918B97F20DB
:103AA000A4F8600006E03F20A4F8600002E00020D7
:103AB000A4F8600000BFB4F86090A068B0F5805F23
:103AC00004D1206910B90025B04602E035464FF018
:103AD000000800BF002084F8800000BF21E05B46A2
:103AE000002220212046CDF800A001F0CDFC08B135
:103AF000032098E74DB92068406A00EA0900A8F859
:103B0000000008F1020807E014E02068406A09F0AC
:103B1000FF01084028706D1CB4F85E00401EA4F838
:103B20005E00B4F85E000028D9D12020C4F88800D7
:103B3000002078E7022076E72DE9F84F04460E468C
:103B400017469946D4F8840020285ED106B117B9EB
:103B50000120BDE8F88F00BF94F88000012801D152
:103B60000220F6E7012084F8800000BF00205434D2
:103B7000A06321202063FDF7BFFC82462780678079
:103B8000543CA068B0F5805F04D1206910B90025CD
:103B9000B04602E035464FF0000800BF002084F830
:103BA000800000BF1DE05346002280212046CDF852
:103BB000009001F069FC08B10320CAE745B9B8F8E4
:103BC0000000C0F308002168886208F1020803E0E1
:103BD0002878216888626D1CB4F85600401EA4F84D
:103BE0005600B4F856000028DDD15346002240218B
:103BF0002046CDF8009001F047FC08B10320A8E76B
:103C00002020C4F884000020A3E70220A1E700BF21
:103C1000FEE70000F0B5144A00250024002320E050
:103C2000B1FBF2F6303606F0FF0C2E466D1C00F8A4
:103C300006C0B1FBF2F602FB16110A26B2FBF6F241
:103C40006E1E865D302E01D1012600E000260CB9E3
:103C5000012700E000273E400EB1002500E0641C73
:103C60005B1C0A2BDCD3F0BD00CA9A3B00B587B0C1
:103C700000BF2448006840F001002249086008465F
:103C8000006800F00100019000BF00BF00BF0846BF
:103C9000006840F0040008600846006800F0040076
:103CA000019000BF00BF00BF0846006840F08000E0
:103CB00008600846006800F08000019000BF00BF67
:103CC0000120029000200390022004900320059020
:103CD00002A90D48FDF706FB4FF4005002900020AA
:103CE0000390012004900320059002A90748FDF7E6
:103CF000F9FA0C20029002A90548FDF7F3FA07B083
:103D000000BD0000E04402580000025800080258BC
:103D1000001C02581FB500200090019002900390F3
:103D2000FDF786FC01208DF8000000208DF80100D1
:103D300001901F208DF8080087208DF809000020D1
:103D40008DF80A008DF80B0001208DF80C008DF81D
:103D50000D0000208DF80E008DF80F006846FDF76D
:103D600039FC0420FDF77AFC1FBD000010B50A489D
:103D70000A4908600020087100210848417141612A
:103D800081610120054908620846FCF7C1FF08B1BE
:103D9000FCF72FFB10BD0000004C02586C040024FF
:103DA00000B587B0142102A8FCF7CAFA00BF224868
:103DB000006840F08000204908600846006800F074
:103DC0008000019000BF00BF00BF0846006840F0BF
:103DD000020008600846006800F00200019000BF81
:103DE00000BF00BF0846006840F0010008600846B8
:103DF000006800F00100019000BF00BF0022032115
:103E00000E48FDF76DFB0820029000200390012072
:103E1000049002A90A48FDF765FA032002900120E8
:103E20000390022004900020059002A90348FDF7AA
:103E300059FA07B000BD0000E044025800040258DF
:103E4000001C025810B51848184908604FF4165065
:103E50004860002115488160C16001610C21416109
:103E600000218161C1610162416200200F498862C5
:103E70000846FFF740FD08B1FCF7BBFA00210B48EC
:103E8000FFF70AFD08B1FCF7B4FA00210748FFF775
:103E9000D4FC08B1FCF7ADFA0448FFF7A7FC08B161
:103EA000FCF7A7FA10BD00000010014090040024A8
:103EB00008B50020009000245B4800F0C5FD5B4879
:103EC00000F0C2FD5A4800F0BFFD5A4800F0BCFDAA
:103ED000574800F0B9FD584800F0B6FD524800F0D0
:103EE000B3FD56A000F0B0FD9DE0FCF74BFB55493B
:103EF000086055A000F0A8FD63A000F0A5FD72A029
:103F000000F0A2FD80A000F09FFD4E48006818B1AF
:103F10008DA000F099FD02E09BA000F095FDAAA005
:103F200000F092FD00BFB8480068806940F00800CA
:103F3000B54909688861B4480068806940F010009C
:103F4000B1490968886100BF4FF0FF33012269461B
:103F5000AD48FFF75BFD9DF80000312806D0322800
:103F600007D0332808D0342858D136E000F030FC90
:103F700058E000F0EDFC55E0A4A000F065FD012044
:103F800080F3108800BF00204FF0E02108614861F5
:103F90008861FEF79BFD002408E04FF0FF31A44844
:103FA00040F82410A34840F82410641C082CF4D3D3
:103FB000002080F3108800BF9F4840689F49086038
:103FC000084600689E4908609B49086880F3088895
:103FD00000BF9B480068804724E01A48006870B121
:103FE0000020FCF711FB30B996A000F02DFD9DA03C
:103FF00000F02AFD11E0A3A000F026FD0DE0012055
:10400000FCF702FB30B9ABA000F01EFD95A000F05C
:104010001BFD02E0AFA000F017FD03E0B8A000F028
:1040200013FD00BF00BF60E71C5D0008385C00089E
:10403000EC5B0008D05C0008845C00080D0A0D0AE7
:1040400000000000080000240D0A3D3D3D3D3D3DBF
:104050003D3D3D3D3D3D3D3D3D3D3D3D3D204D6179
:10406000696E204D656E75203D3D3D3D3D3D3D3DBC
:104070003D3D3D3D3D3D3D3D3D3D3D3D3D3D3D3D70
:104080003D3D3D3D0D0A0A002020446F776E6C6F68
:10409000616420696D61676520746F2074686520B4
:1040A000696E7465726E616C20466C617368202D58
:1040B0002D2D2D2D2D2D2D2D2D2D2D2D2D2D2D2D30
:1040C00020310D0A0A000000202055706C6F6164D9
:1040D00020696D6167652066726F6D207468652068
:1040E000696E7465726E616C20466C617368202D18
:1040F0002D2D2D2D2D2D2D2D2D2D2D2D2D2D2D2DF0
:1041000020320D0A0A00000020204578656375748E
:104110006520746865206C6F6164656420617070EF
:104120006C69636174696F6E202D2D2D2D2D2D2DE1
:104130002D2D2D2D2D2D2D2D2D2D2D2D2D2D2D2DAF
:1041400020330D0A0A000000202044697361626C6C
:1041500065207468652077726974652070726F7469
:10416000656374696F6E202D2D2D2D2D2D2D2D2D18
:104170002D2D2D2D2D2D2D2D2D2D2D2D2D2D2D2D6F
:1041800020340D0A0A0000002020456E61626C6533
:10419000207468652077726974652070726F746529
:1041A0006374696F6E202D2D2D2D2D2D2D2D2D2D10
:1041B0002D2D2D2D2D2D2D2D2D2D2D2D2D2D2D2D2F
:1041C00020340D0A0A0000003D3D3D3D3D3D3D3D92
:1041D0003D3D3D3D3D3D3D3D3D3D3D3D3D3D3D3D0F
:1041E0003D3D3D3D3D3D3D3D3D3D3D3D3D3D3D3DFF
:1041F0003D3D3D3D3D3D3D3D3D3D3D3D3D3D3D3DEF
:104200003D3D0D0A0A0000009004002453746172C1
:10421000742070726F6772616D2065786563757464
:10422000696F6E2E2E2E2E2E2E0D0A0A0000000013
:1042300080E100E080E200E00000020804000024C9
:104240000000002457726974652050726F746563B2
:1042500074696F6E2064697361626C65642E2E2EC2
:104260000D0A000053797374656D2077696C6C20BA
:104270006E6F7720726573746172742E2E2E0D0A24
:10428000000000004572726F723A20466C617368DC
:1042900020777269746520756E2D70726F74656316
:1042A00074696F6E206661696C65642E2E2E0D0A2E
:1042B0000000000057726974652050726F74656366
:1042C00074696F6E20656E61626C65642E2E2E0DB2
:1042D0000A0000004572726F723A20466C61736882
:1042E0002077726974652070726F74656374696F8A
:1042F0006E206661696C65642E2E2E0D0A0000002A
:10430000496E76616C6964204E756D62657220211C
:10431000203D3D3E20546865206E756D62657220BB
:1043200073686F756C642062652065697468657276
:1043300020312C20322C2033206F7220340D0000CD
:1043400000BFFEE700BFFEE770472DE9FE430546CC
:104350000F4690460026012068700020A870FF20BC
:10436000E870002403E0395D201D2954641C385D89
:1043700008B1402CF7D30021201D2954414668463E
:10438000FFF748FC641D06E03046761C1DF800204F
:104390002046641C2A541DF806000028F4D1264645
:1043A00002E00020A855761C842EFAD3BDE8FE83D7
:1043B000F0B507461446B3F5806F02D34FF4806C16
:1043C00001E04FF0800C6246934201D29C4600E02F
:1043D00094466646B2F5806F04D14FF0020C81F826
:1043E00001C003E04FF0010C81F801C08C706FEA4E
:1043F000040C81F803C03D46042004E015F801CB0D
:1044000001F800C0401C06F1040C6045F6D396424A
:104410000AD8301D04E04FF01A0C01F800C0401C0F
:1044200002F1040C6045F6D3F0BD00002DE9F04127
:1044300004460E4600275548006800F00300032894
:1044400002D10120BDE8F08150482838006820F0F2
:1044500080604E4928390860FDF74EF8054606E0B1
:10446000FDF74AF8401B022801D90320EAE7474834
:1044700028380068C0F3C0600028F1D100BF43486D
:10448000006820F47C30216840EA01303F49086030
:10449000A088401EC0F30800A168491E4FF47E4268
:1044A00002EA41210843A189491ED20102EA0141E1
:1044B0000843217C491E120202EA01610843334984
:1044C0001031086000BF3148001D006820F0C000B6
:1044D000616908432D49091D08600846006820F0FD
:1044E0002000A16908432949091D086008460068A1
:1044F00020F0100008602548143000684FF6F8716D
:104500008843E16940EAC1002049143108601F482E
:10451000001D006840F010001C49091D08602EB9FC
:104520000846006840F40020086012E0012E08D11F
:104530001648001D006840F480101449091D0860E9
:1045400007E01248001D006840F400100F49091DE3
:1045500008600E482838006840F080600B49283910
:104560000860FCF7C9FF054606E0FCF7C5FF401BE5
:10457000022801D9032065E7044828380068C0F301
:10458000C0600028F1D038465CE70000284402589B
:104590002DE9F04104460E4600275548006800F01A
:1045A0000300032802D10120BDE8F08150482838DB
:1045B000006820F080504E4928390860FCF79CFFC5
:1045C000054606E0FCF798FF401B022801D90320AE
:1045D000EAE7474828380068C0F340700028F1D166
:1045E00000BF4348006820F07C70218840EA0150F9
:1045F0003F490860A088401EC0F30800A168491E1A
:104600004FF47E4202EA41210843A189491ED201AA
:1046100002EA01410843217C491E120202EA0161BB
:10462000084333491831086000BF3148001D006855
:1046300020F44060616908432D49091D086008465F
:10464000006820F40070A16908432949091D086029
:104650000846006820F48070086025481C30006817
:104660004FF6F8718843E16940EAC10020491C31E6
:1046700008601F48001D006840F480701C49091D37
:1046800008602EB90846006840F48000086012E017
:10469000012E08D11648001D006840F4000014499E
:1046A000091D086007E01248001D006840F0807096
:1046B0000F49091D08600E482838006840F08050F6
:1046C0000B4928390860FCF717FF054606E0FCF7A0
:1046D00013FF401B022801D9032065E7044828384E
:1046E0000068C0F340700028F1D038465CE7000055
:1046F000284402582DE9F84304460E46904600250A
:10470000002030604346012269462F48FFF77EF9BA
:104710000746002F53D19DF80000182812D006DC60
:10472000012809D0022809D004281DD109E0412818
:1047300017D0612818D115E0802517E04FF4806567
:1047400014E013E04346012269461F48FFF75EF973
:1047500028B99DF80000182801D1022500E00127A2
:1047600004E000BF022701E0012700BF00BF9DF861
:1047700000002070802D22D3281D82B24346A11C48
:104780001148FFF743F90746C7B9A078E17881F0EF
:10479000FF01884202D00025012710E0281D205C7F
:1047A0004FEA0029681D205C81442946201DFBF743
:1047B00005FE484503D00025012700E000253560AF
:1047C0003846BDE8F88300009004002470470000DC
:1047D0001FB5002001900290039000901AA000F0F5
:1047E00033F9684600F0EAFE0446B4B9254800F003
:1047F0002BF9254800F028F901A80099FFF70AFADB
:1048000022A000F021F901A800F01EF922A000F07A
:104810001BF924A000F018F914E0052C03D127A0FF
:1048200000F012F90EE0042C03D134A000F00CF9D2
:1048300008E0022C03D138A000F006F902E03CA009
:1048400000F002F91FBD000057616974696E6720AE
:10485000666F72207468652066696C6520746F20CD
:1048600062652073656E74202E2E2E20287072656E
:1048700073732027612720746F2061626F7274291F
:104880000A0D0000985B00082A0400240A0D20533A
:10489000697A653A200000002042797465730D0A38
:1048A000000000002D2D2D2D2D2D2D2D2D2D2D2DEC
:1048B0002D2D2D2D2D2D2D0A000000000A0A0D543E
:1048C000686520696D6167652073697A6520697321
:1048D00020686967686572207468616E2074686515
:1048E00020616C6C6F776564207370616365206D07
:1048F000656D6F7279210A0D000000000A0A0D56DD
:104900006572696669636174696F6E206661696C5E
:104910006564210A0D0000000D0A0A41626F72747D
:10492000656420627920757365722E0A0D0000009F
:104930000A0D4661696C656420746F207265636559
:10494000697665207468652066696C65210A0D00CA
:1049500008B50020009010A000F076F84FF0FF336B
:10496000012269461348FFF751F89DF800004328DB
:1049700010D14FF4602210A1154800F003FF009001
:104980009DF8000018B113A000F05EF802E01CA032
:1049900000F05AF808BD00000A0A0D53656C656303
:1049A0007420526563656976652046696C650A0DF9
:1049B000000000009004002455706C6F6164656411
:1049C000466C617368496D6167652E62696E0000AF
:1049D000000002080A0D4572726F72204F63637502
:1049E00072726564207768696C65205472616E73B9
:1049F0006D697474696E672046696C650A0D000004
:104A00000A0D46696C652075706C6F616465642081
:104A10007375636365737366756C6C79200A0D003A
:104A200001B50848D0F88400A02803D1202005490A
:104A3000C1F884006423012269460248FFF77CF82C
:104A400008BD00009004002470B50446002501E074
:104A5000681C85B2605D0028FAD164232A4621468D
:104A60000148FFF769F870BD9004002470B5024654
:104A70000C460021002000231578302D3ED15578BA
:104A8000782D02D05578582D38D102212BE0555C75
:104A9000412D02DB555C462D0BDD555C612D02DBA3
:104AA000555C662D05DD555C302D19DB555C392DC7
:104AB00016DC555C302D05DB555C392D02DC555C70
:104AC000303D0AE0555C412D05DB555C462D02DC8E
:104AD000555C373D01E0555C573D05EB031301E0A4
:104AE000002005E0491C0B2902D2555C002DCED1D7
:104AF00000BF555C9DBB2360012030E02AE0555C7F
:104B000015B92360012024E0555C6B2D02D0555C63
:104B10004B2D04D119B19B022360012019E0555C93
:104B20006D2D02D0555C4D2D04D119B11B052360AC
:104B300001200EE0555C302D09DB555C392D06DC7B
:104B4000555C303D03EB830605EB460301E0002096
:104B500004E0491C0B2901D20128D0D100BF70BD4F
:104B600010B5FCF7CFFC10BD00B59DB04C210AA8D4
:104B7000FBF7E6FB202102A8FBF7E2FB0220FCF793
:104B8000F1FD00BF002001902948006820F00100DD
:104B9000274908600846006800F001000190254898
:104BA000006840F44040234908600846006800F46B
:104BB0004040019000BF00BF00BF1E48006800F4E5
:104BC0000050B0F5005FF8D101200A9000040B906E
:104BD000022013900221149105211591A021169114
:104BE000022117911891199108211A9100211B9106
:104BF0001C910AA8FEF7E0F908B1FBF7FAFB3F2089
:104C0000029003200390002004900820059040208B
:104C1000069007900001089040200990022102A808
:104C2000FDF7C4FD08B1FBF7E4FB1DB000BD0000BB
:104C30002C040058184802583448006840F47000AA
:104C4000324908603248006800F00F00072806D299
:104C50002F48006820F00F00C01D2D4908602D4826
:104C6000006840F001002B490860002029491031FC
:104C700008602848006828490840264908602448F8
:104C8000006800F00F00072806D92148006820F0CE
:104C90000F00C01D1E49086000201E491831086021
:104CA000091D0860091D08601C481A492831086060
:104CB0001B48091D08601B48091D08600020091DCC
:104CC00008601848091D08600020091D0860154883
:104CD000091D08600020091D08600E48006820F4C6
:104CE00080200C49086000200A49603108600E48A5
:104CF00000686FF30F00B0F1005F02D201200B4992
:104D0000086043F2D2000A490860704788ED00E06D
:104D100000200052004402587FEDF6EA0002020231
:104D20000000FF01800201010010005C08810051B9
:104D30000040005270B5456E2DB90125A0F86A50AB
:104D4000A0F868501CE0102310240568AD68C5F376
:104D500042610568AD686A0F0A4DAD5C15FB04F54C
:104D6000094EB65C95FBF6F5A0F86A50054D6D5CF2
:104D700015FB03F5044E765C95FBF6F5A0F868503C
:104D800070BD0000785B0008805B000890F8281078
:104D900001F0010139B10168496821F40031C26AAA
:104DA00011430268516090F8281001F002010229B5
:104DB00007D10168496821F48031026B1143026810
:104DC000516090F8281001F00401042907D101680E
:104DD000496821F48021426B11430268516090F8C8
:104DE000281001F00801082907D10168496821F459
:104DF0000041826B11430268516090F8281001F065
:104E00001001102907D10168896821F48051C26B13
:104E100011430268916090F8281001F020012029C8
:104E200007D10168896821F40051026C11430268BE
:104E3000916090F8281001F04001402913D10168D9
:104E4000496821F48011426C114302685160416C41
:104E5000B1F5801F07D10168496821F4C001826C57
:104E600011430268516090F8281001F080018029F8
:104E700007D10168496821F40021C26C114302681E
:104E80005160704738B504460020C4F88C00FCF728
:104E900033FB05462068006800F0080008280CD1A4
:104EA0006FF07E402B4600224FF400110090204608
:104EB00000F0EAFA08B1032038BD2068006800F06D
:104EC000040004280CD16FF07E402B4600224FF4E2
:104ED00080010090204600F0D7FA08B10320EBE7EC
:104EE0002020C4F88400C4F888000020E06600BFD9
:104EF00084F8800000BF00BFDEE700002DE9F04F1E
:104F000089B0054600200890F8492868884200D1F9
:104F100000E000BF2969A868084369690843E96996
:104F200040EA010828680068F149084040EA0800A2
:104F3000296808602868406820F44050E968084300
:104F400029684860D5F81880E8492868884202D066
:104F5000286A40EA080828688068E649084040EA6C
:104F60000800296888602868C06A20F00F00696A14
:104F700008432968C86200BFDF492868884220D1F9
:104F8000DE48006800F03800182811D005DC48B170
:104F9000082809D0102811D108E020280AD0282894
:104FA0000CD109E001240BE0042409E0082407E007
:104FB000102405E0202403E0402401E0802400BF09
:104FC000F8E0CF492868884219D1CC48006800F041
:104FD0000700062810D2DFE800F0030507090B0DD3
:104FE00000240BE0042409E0082407E0102405E075
:104FF000202403E0402401E0802400BFDAE0C1491E
:105000002868884219D1BD48006800F007000628CA
:1050100010D2DFE800F0030507090B0D00240BE0B8
:10502000042409E0082407E0102405E0202403E01C
:10503000402401E0802400BFBCE0B34928688842D6
:1050400019D1AE48006800F00700062810D2DFE84A
:1050500000F0030507090B0D00240BE0042409E010
:10506000082407E0102405E0202403E0402401E0A8
:10507000802400BF9EE0A5492868884219D19F4836
:10508000006800F00700062810D2DFE800F00305F2
:1050900007090B0D00240BE0042409E0082407E0B5
:1050A000102405E0202403E0402401E0802400BF18
:1050B00080E097492868884220D19048006800F035
:1050C0003800182811D005DC48B1082809D010286C
:1050D00011D108E020280AD028280CD109E00124A9
:1050E0000BE0042409E0082407E0102405E0202454
:1050F00003E0402401E0802400BF5BE0854928688C
:10510000884219D17D48006800F00700062810D2B7
:10511000DFE800F0030507090B0D00240BE0042471
:1051200009E0082407E0102405E0202403E04024DF
:1051300001E0802400BF3DE077492868884219D10A
:105140006E48006800F00700062810D2DFE800F083
:10515000030507090B0D00240BE0042409E00824D3
:1051600007E0102405E0202403E0402401E080242F
:1051700000BF1FE05D49286888421AD15F48001DC2
:10518000006800F00700062810D2DFE800F00305F1
:1051900007090B0D02240BE0042409E0082407E0B2
:1051A000102405E0202403E0402401E0802400BF17
:1051B00000E0802400BF4D49286888427DD1102C32
:1051C0001AD006DC022C09D0042C0BD0082C29D1D3
:1051D0000DE0202C21D0402C24D120E0FCF7F2FA65
:1051E000064623E005A8FCF7FFFA069E1EE002A88B
:1051F000FCF712FC039E19E0404854380068C0F3E5
:10520000401040B13D4854380068C0F3C1014348E4
:1052100020FA01F600E0414E08E0414E06E04FF46E
:10522000004603E000260120089000BF00BF002ECA
:1052300010D03C49686A31F81000B6FBF0F9686894
:1052400000EB4000484503D868680003484502D297
:105250000120089003E13349686A31F810C06246C2
:10526000002330461946FBF733F84FF480730022D1
:105270008446ACFB030B01FB03B10CFB021C696809
:105280004908034659184CEB0200CDE90010D5F847
:1052900004C06246002308460199FBF719F8074647
:1052A000B7F5407F06D3B7F5801F03D22868C760E3
:1052B000D5E002E001200890D1E0E869B0F5004FA8
:1052C0007BD1082C39D005DC5CB1012C2CD0042C0E
:1052D0004CD12DE0102C35D0202C42D0402C45D183
:1052E00041E0FDF72FFD064644E00000000C0058A9
:1052F000F369FFCFFFF4FF1100100140544402583E
:105300000044004000480040004C00400050004075
:105310000014014000780040007C00400090D00361
:1053200000093D00605B0008FDF71EFD064621E018
:1053300005A8FCF759FA069E1CE002A8FCF76CFBD6
:10534000039E17E04C480068C0F3401038B14A484B
:105350000068C0F3C101494820FA01F600E0474E59
:1053600008E0474E06E04FF4004603E00026012027
:10537000089000BF00BFFEB14249686A31F81000D2
:10538000B6FBF0F04000696800EB5100B0FBF1F7AC
:10539000102F0FD3B7F5803F0CD24FF6F07007EA0D
:1053A000000AC7F342004AEA000A2868C0F80CA0C5
:1053B00055E002E00120089051E0082C1AD005DCED
:1053C0005CB1012C0DD0042C2DD10EE0102C16D088
:1053D000202C23D0402C26D122E0FDF7B3FC06463A
:1053E00025E0FDF7C1FC064621E005A8FCF7FCF925
:1053F000069E1CE002A8FCF70FFB039E17E01E4868
:105400000068C0F3401038B11B480068C0F3C10108
:105410001A4820FA01F600E0184E08E0184E06E09F
:105420004FF4004603E000260120089000BF00BFB3
:10543000AEB11449686A31F81000B6FBF0F0696843
:1054400000EB5100B0FBF1F7102F06D3B7F5803F0A
:1054500003D2B8B22968C86001E001200890012099
:10546000A5F86A00A5F86800002028676867089812
:1054700009B0BDE8F08F0000004402580090D0034E
:1054800000093D00605B00082DE9F04104460D462F
:1054900017469846069E6AE0701C002867D0FCF705
:1054A0002BF8A0EB0800B04200D846BB00BF00BFFD
:1054B000216851E8001F21F4D070226842E8000101
:1054C0000029F5D100BF00BF00BF2168083151E8B5
:1054D000001F21F001002168083141E80002002A84
:1054E000F3D100BF2020C4F88400C4F8880000BFB6
:1054F000002084F8800000BF0320BDE8F081206810
:10550000006800F0040088B32068C069C0F3C020C0
:1055100060B34FF400602168086200BF00BF2168DB
:1055200051E8001F21F4D070226842E800010029F0
:10553000F5D100BF00BF00BF2168083151E8001F4E
:1055400021F001002168083141E80002002AF3D16E
:1055500000BF202044F8840F6060A060843C00BF3E
:10556000002084F8800000BF0320C6E7FFE7206822
:10557000C0692840A84201D1012000E00020B842C3
:105580008AD00020B9E710B503460C46194644F40A
:10559000807200BF4900520002F4807000B1491CC3
:1055A00001F4803010B141F22100414002F480301A
:1055B0000028EFD088B210BD00BFFEE72DE9F04F04
:1055C0008BB0064600200990814607900027804650
:1055D000DFF89CA1C2E0002700200890B8E042F26A
:1055E00010720AA96348FFF785F810B1022873D139
:1055F00092E04FF000090A9838B102280BD106203A
:10560000FFF70EFA4FF0020884E00620FFF708FAD1
:10561000012008907EE057488078F9B2884203D094
:105620001520FFF7FDF974E0002F56D1514800799D
:1056300000284AD000254F4C241D05E014F8012B0A
:1056400028466D1C4C490A54207808B1402DF5D3EA
:10565000002228466D1C48490A540025641C05E0B8
:1056600014F8012B28466D1C02A90A542078202822
:1056700001D0102DF4D3002228466D1C02A90A5433
:1056800006A902A8FFF7F2F93C493068884210D910
:10569000182001900B05012201A93948FEF74CFAA8
:1056A0004FF48013012201A93548FEF745FA4FF067
:1056B00005082F48FAF738FF069830600620FFF7F4
:1056C000AFF94320FFF7ACF920E00620FFF7A8F977
:1056D0000120089009901DE027E0DFF898B00BF159
:1056E000040B0A98820859465046FAF763FF28B916
:1056F0000A9882440620FFF793F907E01820FFF785
:105700008FF91820FFF78CF94FF004087F1C012057
:10571000079000BF00BF1AE01820FFF781F918209A
:10572000FFF77EF94FF0020811E0079808B109F180
:105730000109B9F1050F06D91820FFF771F91820F2
:10574000FFF76EF902E04320FFF76AF900BF00BFE0
:10575000089818B9B8F1000F3FF441AF099818B98B
:10576000B8F1000F3FF437AF40460BB0BDE8F08F03
:1057700000000208240000242A04002401000E0076
:10578000900400242DE9F74F82B00025AB46A846CF
:10579000002701200190A948DDE90312FEF7D5FD9D
:1057A0004DE04FF480138322A449491CA448FEF71E
:1057B000C3F98021A148001DFAF700FE0446200A23
:1057C000FFF72EF9E0B2FFF72BF94FF48013012217
:1057D00069469B48FEF71AF968BB9DF80000062849
:1057E00002D14FF0010B27E09DF80000182823D1CB
:1057F0004FF48013012269469148FEF707F9D8B9A2
:105800009DF80000182817D10220FBF7DBFA00BF33
:105810008B480068806940F0080089490968886100
:1058200087480068806940F01000854909688861F0
:1058300000BF022700E06D1C052D00D30127BBF13E
:10584000000F01D1002FACD0DDF80890DDF81080FA
:1058500053E00198C2B2434678494846FEF7A8FD96
:105860004FF0000B00208DF80000002540E0B8F557
:10587000806F02D34FF4806600E08026F01C82B275
:105880004FF480136D49491C6D48FEF755F93146B8
:105890006A48001DFAF792FD0446200AFFF7C0F897
:1058A000E0B2FFF7BDF84FF4801301226946644867
:1058B000FEF7ACF8C0B99DF80000062814D14FF0EF
:1058C000010BB0450CD9B144A8EB06080198B0F51E
:1058D000607F01D1052708E00198401C019004E099
:1058E000B1444FF0000800E06D1C052D00D30127E6
:1058F000BBF1000F01D1002FB9D0B8F1000F01D0DA
:10590000002FA6D04FF0000B00208DF800000025DE
:105910003CE00420FFF784F84FF48013012269462D
:105920004748FEF773F868BB9DF80000062802D1CF
:105930004FF0010B27E09DF80000182823D14FF409
:105940008013012269463E48FEF760F8D8B99DF8F9
:105950000000182817D10220FBF734FA00BF38489E
:105960000068806940F0080035490968886134485A
:105970000068806940F0100031490968886100BF03
:10598000022700E06D1C052D00D30127BBF1000F9D
:1059900001D1002FBDD0E7BB01202849487000206D
:1059A0008870FF20C8704FF0040A07E000202349E8
:1059B00001F80A000AF1010000F0FF0ABAF1840FB1
:1059C000F4D34FF4801383221C49491C1C48FEF772
:1059D000B3F880211948001DFAF7F0FC0446200AAC
:1059E000FFF71EF8E0B2FFF71BF84FF48013012217
:1059F00069461348FEF70AF858B99DF800001828C0
:105A000017D10220FBF7DEF900BF0D48006880695E
:105A100000E00EE040F00800094909688861084884
:105A20000068806940F0100005490968886100BF7E
:105A30000227384605B0BDE8F08F0000240000249E
:105A400090040024014A024900F02FB8CD5A000802
:105A50002000002402480068C0F3022070470000C4
:105A60000CED00E010B5002804DB0A07130E054A10
:105A7000135406E00A07140E034A00F00F031B1F1D
:105A8000D45410BD00E400E018ED00E002E008C8C6
:105A9000121F08C1002AFAD170477047002001E0A8
:105AA00001C1121F002AFBD170472DE9F0411646B3
:105AB0000F460446002503E03946B047641C6D1CC0
:105AC00020780028F8D12846BDE8F08100BF054ABB
:105AD000D26902F04002002AF9D0C2B2014B9A62A8
